{
  "contractName": "MarketPlace_Cel",
  "abi": [
    {
      "inputs": [
        {
          "internalType": "address",
          "name": "_seller",
          "type": "address"
        },
        {
          "internalType": "address",
          "name": "_buyer",
          "type": "address"
        }
      ],
      "payable": false,
      "stateMutability": "nonpayable",
      "type": "constructor"
    },
    {
      "anonymous": false,
      "inputs": [
        {
          "indexed": false,
          "internalType": "address",
          "name": "",
          "type": "address"
        },
        {
          "indexed": false,
          "internalType": "uint256",
          "name": "",
          "type": "uint256"
        }
      ],
      "name": "eAcceptOffer",
      "type": "event"
    },
    {
      "anonymous": false,
      "inputs": [
        {
          "indexed": false,
          "internalType": "address",
          "name": "",
          "type": "address"
        },
        {
          "indexed": false,
          "internalType": "uint256",
          "name": "",
          "type": "uint256"
        }
      ],
      "name": "eMakeOffer",
      "type": "event"
    },
    {
      "constant": false,
      "inputs": [
        {
          "internalType": "uint256",
          "name": "_sellingPrice",
          "type": "uint256"
        }
      ],
      "name": "makeOffer",
      "outputs": [],
      "payable": false,
      "stateMutability": "nonpayable",
      "type": "function"
    },
    {
      "constant": false,
      "inputs": [
        {
          "internalType": "bool",
          "name": "_increase",
          "type": "bool"
        },
        {
          "internalType": "uint256",
          "name": "_change",
          "type": "uint256"
        }
      ],
      "name": "modifyOffer",
      "outputs": [],
      "payable": false,
      "stateMutability": "nonpayable",
      "type": "function"
    },
    {
      "constant": false,
      "inputs": [],
      "name": "rejectOffer",
      "outputs": [],
      "payable": false,
      "stateMutability": "nonpayable",
      "type": "function"
    },
    {
      "constant": false,
      "inputs": [],
      "name": "acceptOffer",
      "outputs": [],
      "payable": true,
      "stateMutability": "payable",
      "type": "function"
    },
    {
      "constant": false,
      "inputs": [],
      "name": "accept",
      "outputs": [],
      "payable": false,
      "stateMutability": "nonpayable",
      "type": "function"
    },
    {
      "constant": false,
      "inputs": [],
      "name": "withdraw",
      "outputs": [],
      "payable": false,
      "stateMutability": "nonpayable",
      "type": "function"
    }
  ],
  "bytecode": "0x608060405234801561001057600080fd5b50604051610cfb380380610cfb8339818101604052604081101561003357600080fd5b810190808051906020019092919080519060200190929190505050816000806101000a81548173ffffffffffffffffffffffffffffffffffffffff021916908373ffffffffffffffffffffffffffffffffffffffff16021790555080600160006101000a81548173ffffffffffffffffffffffffffffffffffffffff021916908373ffffffffffffffffffffffffffffffffffffffff1602179055506000600460006101000a81548160ff021916908360058111156100ee57fe5b02179055505050610bf7806101046000396000f3fe6080604052600436106100555760003560e01c80632852b71c1461005a5780633ccfd60b146100715780639a2f647414610088578063c0873729146100c3578063eb62df611461010a578063efd998ad14610114575b600080fd5b34801561006657600080fd5b5061006f61012b565b005b34801561007d57600080fd5b506100866104c7565b005b34801561009457600080fd5b506100c1600480360360208110156100ab57600080fd5b8101908080359060200190929190505050610686565b005b3480156100cf57600080fd5b50610108600480360360408110156100e657600080fd5b81019080803515159060200190929190803590602001909291905050506107c1565b005b6101126108d9565b005b34801561012057600080fd5b50610129610a77565b005b6002600581111561013857fe5b600460009054906101000a900460ff16600581111561015357fe5b148061018457506003600581111561016757fe5b600460009054906101000a900460ff16600581111561018257fe5b145b806101b457506004600581111561019757fe5b600460009054906101000a900460ff1660058111156101b257fe5b145b610209576040517f08c379a000000000000000000000000000000000000000000000000000000000815260040180806020018281038252602c815260200180610b75602c913960400191505060405180910390fd5b6002600581111561021657fe5b600460009054906101000a900460ff16600581111561023157fe5b14801561028b5750600160009054906101000a900473ffffffffffffffffffffffffffffffffffffffff1673ffffffffffffffffffffffffffffffffffffffff163373ffffffffffffffffffffffffffffffffffffffff16145b156102b9576003600460006101000a81548160ff021916908360058111156102af57fe5b02179055506104c5565b600260058111156102c657fe5b600460009054906101000a900460ff1660058111156102e157fe5b14801561033a57506000809054906101000a900473ffffffffffffffffffffffffffffffffffffffff1673ffffffffffffffffffffffffffffffffffffffff163373ffffffffffffffffffffffffffffffffffffffff16145b156103675760048060006101000a81548160ff0219169083600581111561035d57fe5b02179055506104c4565b6003600581111561037457fe5b600460009054906101000a900460ff16600581111561038f57fe5b1480156103e857506000809054906101000a900473ffffffffffffffffffffffffffffffffffffffff1673ffffffffffffffffffffffffffffffffffffffff163373ffffffffffffffffffffffffffffffffffffffff16145b15610416576005600460006101000a81548160ff0219169083600581111561040c57fe5b02179055506104c3565b6004600581111561042357fe5b600460009054906101000a900460ff16600581111561043e57fe5b1480156104985750600160009054906101000a900473ffffffffffffffffffffffffffffffffffffffff1673ffffffffffffffffffffffffffffffffffffffff163373ffffffffffffffffffffffffffffffffffffffff16145b156104c2576005600460006101000a81548160ff021916908360058111156104bc57fe5b02179055505b5b5b5b565b6005808111156104d357fe5b600460009054906101000a900460ff1660058111156104ee57fe5b14801561054757506000809054906101000a900473ffffffffffffffffffffffffffffffffffffffff1673ffffffffffffffffffffffffffffffffffffffff163373ffffffffffffffffffffffffffffffffffffffff16145b61059c576040517f08c379a000000000000000000000000000000000000000000000000000000000815260040180806020018281038252602c815260200180610b75602c913960400191505060405180910390fd5b60008060009054906101000a900473ffffffffffffffffffffffffffffffffffffffff1673ffffffffffffffffffffffffffffffffffffffff166003546108fc90604051806000019050600060405180830381858888f193505050503d8060008114610624576040519150601f19603f3d011682016040523d82523d6000602084013e610629565b606091505b5050905080610683576040517f08c379a0000000000000000000000000000000000000000000000000000000008152600401808060200182810382526022815260200180610ba16022913960400191505060405180910390fd5b50565b6000600581111561069357fe5b600460009054906101000a900460ff1660058111156106ae57fe5b14610704576040517f08c379a000000000000000000000000000000000000000000000000000000000815260040180806020018281038252602c815260200180610b75602c913960400191505060405180910390fd5b806002819055506001600460006101000a81548160ff0219169083600581111561072a57fe5b02179055507fac2a732696baf520f05929eb1f8ee293cc8166f98af0cfd49f9c5fc019f3132c600160009054906101000a900473ffffffffffffffffffffffffffffffffffffffff16600254604051808373ffffffffffffffffffffffffffffffffffffffff1673ffffffffffffffffffffffffffffffffffffffff1681526020018281526020019250505060405180910390a150565b600160058111156107ce57fe5b600460009054906101000a900460ff1660058111156107e957fe5b14801561084257506000809054906101000a900473ffffffffffffffffffffffffffffffffffffffff1673ffffffffffffffffffffffffffffffffffffffff163373ffffffffffffffffffffffffffffffffffffffff16145b610897576040517f08c379a000000000000000000000000000000000000000000000000000000000815260040180806020018281038252602c815260200180610b75602c913960400191505060405180910390fd5b8180156108aa5750806000190360025411155b156108bf5780600254016002819055506108d5565b80600254106108d45780600254036002819055505b5b5050565b600160058111156108e657fe5b600460009054906101000a900460ff16600581111561090157fe5b14158061095c5750600160009054906101000a900473ffffffffffffffffffffffffffffffffffffffff1673ffffffffffffffffffffffffffffffffffffffff163373ffffffffffffffffffffffffffffffffffffffff1614155b156109b2576040517f08c379a000000000000000000000000000000000000000000000000000000000815260040180806020018281038252602c815260200180610b75602c913960400191505060405180910390fd5b6002543410610a7557346003819055507fa9a2c228cc57d1d709c8bd829952b1187721791bde967500f8e72bc5fcec89346000809054906101000a900473ffffffffffffffffffffffffffffffffffffffff16600354604051808373ffffffffffffffffffffffffffffffffffffffff1673ffffffffffffffffffffffffffffffffffffffff1681526020018281526020019250505060405180910390a16002600460006101000a81548160ff02191690836005811115610a6f57fe5b02179055505b565b60016005811115610a8457fe5b600460009054906101000a900460ff166005811115610a9f57fe5b148015610af95750600160009054906101000a900473ffffffffffffffffffffffffffffffffffffffff1673ffffffffffffffffffffffffffffffffffffffff163373ffffffffffffffffffffffffffffffffffffffff16145b610b4e576040517f08c379a000000000000000000000000000000000000000000000000000000000815260040180806020018281038252602c815260200180610b75602c913960400191505060405180910390fd5b6000600460006101000a81548160ff02191690836005811115610b6d57fe5b021790555056fe3c4572726f724c6f673e2066756e6374696f6e20696e766f6b656420696e20696e76616c69642073746174653c4572726f724c6f673e2053656e64696e67206f66206574686572206661696c6564a265627a7a7231582003ea0b308eec3ba5f40f84be29047ffbaebee527f6ba314bc03df801552424cb64736f6c63430005100032",
  "source": "/* Code generated by compiler */\r\n\r\npragma solidity >=0.5.0 <0.7.0;\r\n\r\nlibrary Safe_Arith {\r\n\r\nfunction safe_add (uint a, uint b) public pure returns (uint) {\r\n    if (a < a + b) revert (\"Overflow Error\");\r\n    else return (a + b);\r\n}\r\n\r\nfunction safe_sub (uint a, uint b) public pure returns (uint) {\r\n    if (a - b > 0) revert (\"Underflow Error\");\r\n    else return (a - b);\r\n}\r\n\r\nfunction safe_mul (uint a, uint b) public pure returns (uint) {\r\n    if (b == 0) return 0;\r\n    if (a != (a * b)/b) revert (\"Overflow Error\");\r\n    else return (a * b);\r\n}\r\n\r\nfunction safe_div (uint a, uint b) public pure returns (uint) {\r\n    if (b == 0) revert (\"Division by 0 error\");\r\n    else return (a / b);\r\n}\r\n}contract MarketPlace_Cel\r\n{\r\n\r\nenum state\r\n{        marketPlace_Active, marketPlace_OfferPlaced, marketPlace_NotionalAccept, marketPlace_BuyerAccept, marketPlace_SellerAccept, marketPlace_Accept}\r\nevent eMakeOffer(address, uint);\r\nevent eAcceptOffer(address, uint);\r\n\r\n    address seller;\r\n    address buyer;\r\n    uint sellingPrice;\r\n    uint buyingPrice;\r\n    state ContractCurrentstate;\r\nconstructor (address _seller, address _buyer)\r\npublic {\r\n        seller = _seller;\r\n        buyer = _buyer;\r\n        ContractCurrentstate = state.marketPlace_Active;\r\n        return;\r\n}\r\n\r\n    function makeOffer (uint _sellingPrice)\r\n    public {\r\n        if (ContractCurrentstate != state.marketPlace_Active) {\r\n            revert (\"<ErrorLog> function invoked in invalid state\");\r\n        }\r\n        sellingPrice = _sellingPrice;\r\n        ContractCurrentstate = state.marketPlace_OfferPlaced;\r\n        emit eMakeOffer(buyer, sellingPrice);\r\n        return;\r\n    }\r\n\r\n    function modifyOffer (bool _increase, uint _change)\r\n    public {\r\n        if (! (ContractCurrentstate == state.marketPlace_OfferPlaced && msg.sender == seller)) {\r\n            revert (\"<ErrorLog> function invoked in invalid state\");\r\n        }\r\n        if (_increase && sellingPrice <= (~uint256(0)) - _change) {\r\n            sellingPrice = sellingPrice + _change;\r\n        }\r\n        else {\r\n            if (sellingPrice >= _change) {\r\n                sellingPrice = sellingPrice - _change;\r\n            }\r\n        }\r\n        return;\r\n    }\r\n\r\n    function rejectOffer ()\r\n    public {\r\n        if (! (ContractCurrentstate == state.marketPlace_OfferPlaced && msg.sender == buyer)) {\r\n            revert (\"<ErrorLog> function invoked in invalid state\");\r\n        }\r\n        ContractCurrentstate = state.marketPlace_Active;\r\n        return;\r\n    }\r\n\r\n    function acceptOffer ()\r\n    public payable {\r\n        if (ContractCurrentstate != state.marketPlace_OfferPlaced || msg.sender != buyer) {\r\n            revert (\"<ErrorLog> function invoked in invalid state\");\r\n        }\r\n        if (msg.value >= sellingPrice) {\r\n            buyingPrice = msg.value;\r\n            emit eAcceptOffer(seller, buyingPrice);\r\n            ContractCurrentstate = state.marketPlace_NotionalAccept;\r\n        }\r\n        return;\r\n    }\r\n\r\n    function accept ()\r\n    public {\r\n        if (! (ContractCurrentstate == state.marketPlace_NotionalAccept || ContractCurrentstate == state.marketPlace_BuyerAccept || ContractCurrentstate == state.marketPlace_SellerAccept)) {\r\n            revert (\"<ErrorLog> function invoked in invalid state\");\r\n        }\r\n        if (ContractCurrentstate == state.marketPlace_NotionalAccept && msg.sender == buyer) {\r\n            ContractCurrentstate = state.marketPlace_BuyerAccept;\r\n        }\r\n        else         if (ContractCurrentstate == state.marketPlace_NotionalAccept && msg.sender == seller) {\r\n            ContractCurrentstate = state.marketPlace_SellerAccept;\r\n        }\r\n        else         if (ContractCurrentstate == state.marketPlace_BuyerAccept && msg.sender == seller) {\r\n            ContractCurrentstate = state.marketPlace_Accept;\r\n        }\r\n        else         if (ContractCurrentstate == state.marketPlace_SellerAccept && msg.sender == buyer) {\r\n            ContractCurrentstate = state.marketPlace_Accept;\r\n        }\r\n        return;\r\n    }\r\n\r\n    function withdraw ()\r\n    public {\r\n        if (! (ContractCurrentstate == state.marketPlace_Accept && msg.sender == seller)) {\r\n            revert (\"<ErrorLog> function invoked in invalid state\");\r\n        }\r\n        (bool success, ) = seller.call.value(buyingPrice).gas(2300)(\"\");\r\n        if (!success)\r\n            revert (\"<ErrorLog> Sending of ether failed\");\r\n        return;\r\n    }\r\n}\r\n",
  "sourcePath": "C:\\Users\\t-sumukh\\source\\repos\\smart-contracts\\gitrepo\\celestial\\Experiments\\AssetTransfer\\contracts\\contract.sol",
  "compiler": {
    "name": "solc",
    "version": "0.5.16+commit.9c3226ce.Emscripten.clang"
  },
  "schemaVersion": "3.2.0",
  "updatedAt": "2020-05-30T14:27:13.271Z",
  "devdoc": {
    "methods": {}
  },
  "userdoc": {
    "methods": {}
  }
}