{
  "contractName": "MarketPlace",
  "abi": [
    {
      "inputs": [
        {
          "internalType": "address",
          "name": "_seller",
          "type": "address"
        },
        {
          "internalType": "address",
          "name": "_buyer",
          "type": "address"
        }
      ],
      "payable": false,
      "stateMutability": "nonpayable",
      "type": "constructor"
    },
    {
      "anonymous": false,
      "inputs": [
        {
          "indexed": false,
          "internalType": "address",
          "name": "",
          "type": "address"
        },
        {
          "indexed": false,
          "internalType": "uint256",
          "name": "",
          "type": "uint256"
        }
      ],
      "name": "eAcceptOffer",
      "type": "event"
    },
    {
      "anonymous": false,
      "inputs": [
        {
          "indexed": false,
          "internalType": "address",
          "name": "",
          "type": "address"
        },
        {
          "indexed": false,
          "internalType": "uint256",
          "name": "",
          "type": "uint256"
        }
      ],
      "name": "eMakeOffer",
      "type": "event"
    },
    {
      "constant": false,
      "inputs": [
        {
          "internalType": "uint256",
          "name": "_sellingPrice",
          "type": "uint256"
        }
      ],
      "name": "MakeOffer",
      "outputs": [],
      "payable": false,
      "stateMutability": "nonpayable",
      "type": "function"
    },
    {
      "constant": false,
      "inputs": [
        {
          "internalType": "bool",
          "name": "_increase",
          "type": "bool"
        },
        {
          "internalType": "uint256",
          "name": "_change",
          "type": "uint256"
        }
      ],
      "name": "ModifyOffer",
      "outputs": [],
      "payable": false,
      "stateMutability": "nonpayable",
      "type": "function"
    },
    {
      "constant": false,
      "inputs": [],
      "name": "RejectOffer",
      "outputs": [],
      "payable": false,
      "stateMutability": "nonpayable",
      "type": "function"
    },
    {
      "constant": false,
      "inputs": [],
      "name": "AcceptOffer",
      "outputs": [],
      "payable": true,
      "stateMutability": "payable",
      "type": "function"
    },
    {
      "constant": false,
      "inputs": [],
      "name": "Accept",
      "outputs": [],
      "payable": false,
      "stateMutability": "nonpayable",
      "type": "function"
    },
    {
      "constant": false,
      "inputs": [],
      "name": "Withdraw",
      "outputs": [],
      "payable": false,
      "stateMutability": "nonpayable",
      "type": "function"
    }
  ],
  "bytecode": "0x608060405234801561001057600080fd5b50604051610cd1380380610cd18339818101604052604081101561003357600080fd5b810190808051906020019092919080519060200190929190505050816000806101000a81548173ffffffffffffffffffffffffffffffffffffffff021916908373ffffffffffffffffffffffffffffffffffffffff16021790555080600160006101000a81548173ffffffffffffffffffffffffffffffffffffffff021916908373ffffffffffffffffffffffffffffffffffffffff1602179055506000600460006101000a81548160ff021916908360058111156100ee57fe5b02179055505050610bcd806101046000396000f3fe6080604052600436106100555760003560e01c806357ea89b61461005a57806358993640146100715780636bd6fe801461008857806372ffb2fe1461009f578063d12cd942146100da578063ff01a152146100e4575b600080fd5b34801561006657600080fd5b5061006f61012b565b005b34801561007d57600080fd5b5061008661029c565b005b34801561009457600080fd5b5061009d610638565b005b3480156100ab57600080fd5b506100d8600480360360208110156100c257600080fd5b8101908080359060200190929190505050610738565b005b6100e26108ce565b005b3480156100f057600080fd5b506101296004803603604081101561010757600080fd5b8101908080351515906020019092919080359060200190929190505050610a6d565b005b336000809054906101000a900473ffffffffffffffffffffffffffffffffffffffff1673ffffffffffffffffffffffffffffffffffffffff168173ffffffffffffffffffffffffffffffffffffffff161461018557600080fd5b60058081111561019157fe5b600460009054906101000a900460ff1660058111156101ac57fe5b14610202576040517f08c379a000000000000000000000000000000000000000000000000000000000815260040180806020018281038252602c815260200180610b6d602c913960400191505060405180910390fd5b60008060009054906101000a900473ffffffffffffffffffffffffffffffffffffffff1673ffffffffffffffffffffffffffffffffffffffff1660035460405180600001905060006040518083038185875af1925050503d8060008114610285576040519150601f19603f3d011682016040523d82523d6000602084013e61028a565b606091505b505090508061029857600080fd5b5050565b600260058111156102a957fe5b600460009054906101000a900460ff1660058111156102c457fe5b14806102f55750600360058111156102d857fe5b600460009054906101000a900460ff1660058111156102f357fe5b145b8061032557506004600581111561030857fe5b600460009054906101000a900460ff16600581111561032357fe5b145b61037a576040517f08c379a000000000000000000000000000000000000000000000000000000000815260040180806020018281038252602c815260200180610b6d602c913960400191505060405180910390fd5b6002600581111561038757fe5b600460009054906101000a900460ff1660058111156103a257fe5b1480156103fc5750600160009054906101000a900473ffffffffffffffffffffffffffffffffffffffff1673ffffffffffffffffffffffffffffffffffffffff163373ffffffffffffffffffffffffffffffffffffffff16145b1561042a576003600460006101000a81548160ff0219169083600581111561042057fe5b0217905550610636565b6002600581111561043757fe5b600460009054906101000a900460ff16600581111561045257fe5b1480156104ab57506000809054906101000a900473ffffffffffffffffffffffffffffffffffffffff1673ffffffffffffffffffffffffffffffffffffffff163373ffffffffffffffffffffffffffffffffffffffff16145b156104d85760048060006101000a81548160ff021916908360058111156104ce57fe5b0217905550610635565b600360058111156104e557fe5b600460009054906101000a900460ff16600581111561050057fe5b14801561055957506000809054906101000a900473ffffffffffffffffffffffffffffffffffffffff1673ffffffffffffffffffffffffffffffffffffffff163373ffffffffffffffffffffffffffffffffffffffff16145b15610587576005600460006101000a81548160ff0219169083600581111561057d57fe5b0217905550610634565b6004600581111561059457fe5b600460009054906101000a900460ff1660058111156105af57fe5b1480156106095750600160009054906101000a900473ffffffffffffffffffffffffffffffffffffffff1673ffffffffffffffffffffffffffffffffffffffff163373ffffffffffffffffffffffffffffffffffffffff16145b15610633576005600460006101000a81548160ff0219169083600581111561062d57fe5b02179055505b5b5b5b565b33600160009054906101000a900473ffffffffffffffffffffffffffffffffffffffff1673ffffffffffffffffffffffffffffffffffffffff168173ffffffffffffffffffffffffffffffffffffffff161461069357600080fd5b600160058111156106a057fe5b600460009054906101000a900460ff1660058111156106bb57fe5b14610711576040517f08c379a000000000000000000000000000000000000000000000000000000000815260040180806020018281038252602c815260200180610b6d602c913960400191505060405180910390fd5b6000600460006101000a81548160ff0219169083600581111561073057fe5b021790555050565b336000809054906101000a900473ffffffffffffffffffffffffffffffffffffffff1673ffffffffffffffffffffffffffffffffffffffff168173ffffffffffffffffffffffffffffffffffffffff161461079257600080fd5b6000600581111561079f57fe5b600460009054906101000a900460ff1660058111156107ba57fe5b14610810576040517f08c379a000000000000000000000000000000000000000000000000000000000815260040180806020018281038252602c815260200180610b6d602c913960400191505060405180910390fd5b816002819055506001600460006101000a81548160ff0219169083600581111561083657fe5b02179055507fac2a732696baf520f05929eb1f8ee293cc8166f98af0cfd49f9c5fc019f3132c600160009054906101000a900473ffffffffffffffffffffffffffffffffffffffff16600254604051808373ffffffffffffffffffffffffffffffffffffffff1673ffffffffffffffffffffffffffffffffffffffff1681526020018281526020019250505060405180910390a15050565b33600160009054906101000a900473ffffffffffffffffffffffffffffffffffffffff1673ffffffffffffffffffffffffffffffffffffffff168173ffffffffffffffffffffffffffffffffffffffff161461092957600080fd5b6001600581111561093657fe5b600460009054906101000a900460ff16600581111561095157fe5b146109a7576040517f08c379a000000000000000000000000000000000000000000000000000000000815260040180806020018281038252602c815260200180610b6d602c913960400191505060405180910390fd5b6002543410610a6a57346003819055507fa9a2c228cc57d1d709c8bd829952b1187721791bde967500f8e72bc5fcec89346000809054906101000a900473ffffffffffffffffffffffffffffffffffffffff16600354604051808373ffffffffffffffffffffffffffffffffffffffff1673ffffffffffffffffffffffffffffffffffffffff1681526020018281526020019250505060405180910390a16002600460006101000a81548160ff02191690836005811115610a6457fe5b02179055505b50565b336000809054906101000a900473ffffffffffffffffffffffffffffffffffffffff1673ffffffffffffffffffffffffffffffffffffffff168173ffffffffffffffffffffffffffffffffffffffff1614610ac757600080fd5b60016005811115610ad457fe5b600460009054906101000a900460ff166005811115610aef57fe5b14610b45576040517f08c379a000000000000000000000000000000000000000000000000000000000815260040180806020018281038252602c815260200180610b6d602c913960400191505060405180910390fd5b8215610b5b578160025401600281905550610b67565b81600254036002819055505b50505056fe3c4572726f724c6f673e2066756e6374696f6e20696e766f6b656420696e20696e76616c6964207374617465a265627a7a723158209e2c8567a0634ddb298a675005b0247a4b6ae7866d668cc403321f3921e7899464736f6c63430005100032",
  "source": "pragma solidity >=0.5.1;\n\ncontract MarketPlace\n{\n    address seller;\n    address buyer;\n\n    uint sellingPrice;\n    uint buyingPrice;\n\n    enum State\n    {\n        MarketPlace_Active, MarketPlace_OfferPlaced, MarketPlace_NotionalAccept,\n         MarketPlace_BuyerAccept, MarketPlace_SellerAccept, MarketPlace_Accept\n    }\n    State private ContractCurrentState;\n\n    event eMakeOffer(address, uint);\n    event eAcceptOffer(address, uint);\n\n    modifier isSeller (address _caller)\n    {\n        require(_caller == seller);\n        _;\n    }\n\n    modifier isBuyer (address _caller)\n    {\n        require(_caller == buyer);\n        _;\n    }\n\n    constructor (address _seller, address _buyer)\n        public\n    {\n        seller = _seller;\n        buyer = _buyer;\n\n        ContractCurrentState = State.MarketPlace_Active;\n    }\n\n    function MakeOffer (uint _sellingPrice)\n        public\n        isSeller (msg.sender)\n    {\n        require(ContractCurrentState == State.MarketPlace_Active, \"<ErrorLog> function invoked in invalid state\");\n\n        sellingPrice = _sellingPrice;\n        ContractCurrentState = State.MarketPlace_OfferPlaced;\n        emit eMakeOffer(buyer, sellingPrice);\n    }\n\n    function ModifyOffer (bool _increase, uint _change)\n        public\n        isSeller (msg.sender)\n    {\n        require(ContractCurrentState == State.MarketPlace_OfferPlaced, \"<ErrorLog> function invoked in invalid state\");\n\n        if (_increase)\n        {\n            sellingPrice = sellingPrice + _change; // overflow\n        }\n        else\n        {\n            sellingPrice = sellingPrice - _change;  // underflow\n        }\n    }\n\n    function RejectOffer ()\n        public\n        isBuyer (msg.sender)\n    {\n        require(ContractCurrentState == State.MarketPlace_OfferPlaced, \"<ErrorLog> function invoked in invalid state\");\n\n        ContractCurrentState = State.MarketPlace_Active;\n    }\n\n    function AcceptOffer ()\n        public\n        payable\n        isBuyer (msg.sender)\n    {\n        // Workbench bug: MarketPlace_Active\n        require(ContractCurrentState == State.MarketPlace_OfferPlaced, \"<ErrorLog> function invoked in invalid state\");\n\n        if (msg.value >= sellingPrice)\n        {\n            buyingPrice = msg.value;\n            emit eAcceptOffer(seller, buyingPrice);\n            ContractCurrentState = State.MarketPlace_NotionalAccept;\n        }\n    }\n\n    function Accept()\n        public\n    {\n        require(ContractCurrentState == State.MarketPlace_NotionalAccept || ContractCurrentState == State.MarketPlace_BuyerAccept ||\n                ContractCurrentState == State.MarketPlace_SellerAccept, \"<ErrorLog> function invoked in invalid state\");\n\n        if (ContractCurrentState == State.MarketPlace_NotionalAccept && msg.sender == buyer)\n        {\n            ContractCurrentState = State.MarketPlace_BuyerAccept;\n        }\n\n        else if (ContractCurrentState == State.MarketPlace_NotionalAccept && msg.sender == seller)\n        {\n            ContractCurrentState = State.MarketPlace_SellerAccept;\n        }\n\n        else if (ContractCurrentState == State.MarketPlace_BuyerAccept && msg.sender == seller)\n        {\n            // workbench bug: goto SellerAccept\n            ContractCurrentState = State.MarketPlace_Accept;\n        }\n\n        else if (ContractCurrentState == State.MarketPlace_SellerAccept && msg.sender == buyer)\n        {\n            ContractCurrentState = State.MarketPlace_Accept;\n        }\n    }\n\n    function Withdraw()\n        public\n        isSeller (msg.sender)\n    {\n        require(ContractCurrentState == State.MarketPlace_Accept, \"<ErrorLog> function invoked in invalid state\");\n\n        (bool success, ) = seller.call.value(buyingPrice)(\"\");\n        if(!success)\n            revert();\n    }\n}",
  "sourcePath": "C:\\Users\\t-sumukh\\source\\repos\\smart-contracts\\gitrepo\\celestial\\Experiments\\AssetTransfer\\contracts\\AssetTransfer.sol",
  "compiler": {
    "name": "solc",
    "version": "0.5.16+commit.9c3226ce.Emscripten.clang"
  },
  "schemaVersion": "3.2.0",
  "updatedAt": "2020-05-30T14:27:13.258Z",
  "devdoc": {
    "methods": {}
  },
  "userdoc": {
    "methods": {}
  }
}